{
  "address": "0x4539D3582fcf61c19686B4b4F546F0c78b010d43",
  "abi": [
    {
      "anonymous": false,
      "inputs": [
        {
          "indexed": true,
          "internalType": "address",
          "name": "owner",
          "type": "address"
        },
        {
          "indexed": true,
          "internalType": "address",
          "name": "spender",
          "type": "address"
        },
        {
          "indexed": false,
          "internalType": "uint256",
          "name": "value",
          "type": "uint256"
        }
      ],
      "name": "Approval",
      "type": "event"
    },
    {
      "anonymous": false,
      "inputs": [
        {
          "indexed": true,
          "internalType": "address",
          "name": "from",
          "type": "address"
        },
        {
          "indexed": true,
          "internalType": "address",
          "name": "to",
          "type": "address"
        },
        {
          "indexed": false,
          "internalType": "uint256",
          "name": "value",
          "type": "uint256"
        }
      ],
      "name": "Transfer",
      "type": "event"
    },
    {
      "inputs": [
        {
          "internalType": "address",
          "name": "owner_",
          "type": "address"
        },
        {
          "internalType": "address",
          "name": "spender_",
          "type": "address"
        }
      ],
      "name": "allowance",
      "outputs": [
        {
          "internalType": "uint256",
          "name": "",
          "type": "uint256"
        }
      ],
      "stateMutability": "view",
      "type": "function"
    },
    {
      "inputs": [
        {
          "internalType": "address",
          "name": "spender_",
          "type": "address"
        },
        {
          "internalType": "uint256",
          "name": "amount_",
          "type": "uint256"
        }
      ],
      "name": "approve",
      "outputs": [
        {
          "internalType": "bool",
          "name": "",
          "type": "bool"
        }
      ],
      "stateMutability": "nonpayable",
      "type": "function"
    },
    {
      "inputs": [
        {
          "internalType": "address",
          "name": "account_",
          "type": "address"
        }
      ],
      "name": "balanceOf",
      "outputs": [
        {
          "internalType": "uint256",
          "name": "",
          "type": "uint256"
        }
      ],
      "stateMutability": "view",
      "type": "function"
    },
    {
      "inputs": [],
      "name": "construct",
      "outputs": [
        {
          "internalType": "bool",
          "name": "",
          "type": "bool"
        }
      ],
      "stateMutability": "nonpayable",
      "type": "function"
    },
    {
      "inputs": [],
      "name": "decimals",
      "outputs": [
        {
          "internalType": "uint8",
          "name": "",
          "type": "uint8"
        }
      ],
      "stateMutability": "view",
      "type": "function"
    },
    {
      "inputs": [
        {
          "internalType": "address",
          "name": "_user",
          "type": "address"
        }
      ],
      "name": "getViewUser",
      "outputs": [
        {
          "components": [
            {
              "internalType": "address",
              "name": "account",
              "type": "address"
            },
            {
              "internalType": "uint256",
              "name": "telegramId",
              "type": "uint256"
            },
            {
              "internalType": "string",
              "name": "useWallet",
              "type": "string"
            },
            {
              "internalType": "string",
              "name": "nation",
              "type": "string"
            }
          ],
          "internalType": "struct User",
          "name": "",
          "type": "tuple"
        }
      ],
      "stateMutability": "view",
      "type": "function"
    },
    {
      "inputs": [],
      "name": "name",
      "outputs": [
        {
          "internalType": "string",
          "name": "",
          "type": "string"
        }
      ],
      "stateMutability": "view",
      "type": "function"
    },
    {
      "inputs": [],
      "name": "symbol",
      "outputs": [
        {
          "internalType": "string",
          "name": "",
          "type": "string"
        }
      ],
      "stateMutability": "view",
      "type": "function"
    },
    {
      "inputs": [],
      "name": "totalSupply",
      "outputs": [
        {
          "internalType": "uint256",
          "name": "",
          "type": "uint256"
        }
      ],
      "stateMutability": "view",
      "type": "function"
    },
    {
      "inputs": [
        {
          "internalType": "address",
          "name": "to_",
          "type": "address"
        },
        {
          "internalType": "uint256",
          "name": "amount_",
          "type": "uint256"
        }
      ],
      "name": "transfer",
      "outputs": [
        {
          "internalType": "bool",
          "name": "",
          "type": "bool"
        }
      ],
      "stateMutability": "nonpayable",
      "type": "function"
    },
    {
      "inputs": [
        {
          "internalType": "address",
          "name": "from_",
          "type": "address"
        },
        {
          "internalType": "address",
          "name": "to_",
          "type": "address"
        },
        {
          "internalType": "uint256",
          "name": "amount_",
          "type": "uint256"
        }
      ],
      "name": "transferFrom",
      "outputs": [
        {
          "internalType": "bool",
          "name": "",
          "type": "bool"
        }
      ],
      "stateMutability": "nonpayable",
      "type": "function"
    }
  ],
  "args": [],
  "numDeployments": 1,
  "solcInputHash": "6a165253e6a03295f502a74c07db0d8d",
  "bytecode": "0x608060405234801561001057600080fd5b506116d2806100206000396000f3fe608060405234801561001057600080fd5b50600436106100a95760003560e01c806370a082311161007157806370a082311461016857806394b91deb1461019857806395d89b41146101b6578063a9059cbb146101d4578063a944dff014610204578063dd62ed3e14610234576100a9565b806306fdde03146100ae578063095ea7b3146100cc57806318160ddd146100fc57806323b872dd1461011a578063313ce5671461014a575b600080fd5b6100b6610264565b6040516100c39190610d1a565b60405180910390f35b6100e660048036038101906100e19190610dd5565b610305565b6040516100f39190610e30565b60405180910390f35b61010461031a565b6040516101119190610e5a565b60405180910390f35b610134600480360381019061012f9190610e75565b610332565b6040516101419190610e30565b60405180910390f35b610152610353565b60405161015f9190610ee4565b60405180910390f35b610182600480360381019061017d9190610eff565b610378565b60405161018f9190610e5a565b60405180910390f35b6101a06103cf565b6040516101ad9190610e30565b60405180910390f35b6101be61050e565b6040516101cb9190610d1a565b60405180910390f35b6101ee60048036038101906101e99190610dd5565b6105af565b6040516101fb9190610e30565b60405180910390f35b61021e60048036038101906102199190610eff565b6105c4565b60405161022b9190610ffe565b60405180910390f35b61024e60048036038101906102499190611020565b6107b0565b60405161025b9190610e5a565b60405180910390f35b60606000610270610845565b90508060040180546102819061108f565b80601f01602080910402602001604051908101604052809291908181526020018280546102ad9061108f565b80156102fa5780601f106102cf576101008083540402835291602001916102fa565b820191906000526020600020905b8154815290600101906020018083116102dd57829003601f168201915b505050505091505090565b6000610312338484610872565b905092915050565b600080610325610845565b9050806003015491505090565b600061033f84848461097e565b61034a8484846109cd565b90509392505050565b60008061035e610845565b90508060020160009054906101000a900460ff1691505090565b600080610383610845565b90508060000160008473ffffffffffffffffffffffffffffffffffffffff1673ffffffffffffffffffffffffffffffffffffffff16815260200190815260200160002054915050919050565b6000806103da610845565b90506040518060400160405280600681526020017f6a616e676a750000000000000000000000000000000000000000000000000000815250816004019081610422919061129b565b506040518060400160405280600281526020017f6a6a000000000000000000000000000000000000000000000000000000000000815250816005019081610469919061129b565b5060128160020160006101000a81548160ff021916908360ff1602179055508060020160009054906101000a900460ff16600a6104a691906114cf565b620f42406104b4919061151a565b816003018190555080600301548160000160003373ffffffffffffffffffffffffffffffffffffffff1673ffffffffffffffffffffffffffffffffffffffff16815260200190815260200160002081905550600191505090565b6060600061051a610845565b905080600501805461052b9061108f565b80601f01602080910402602001604051908101604052809291908181526020018280546105579061108f565b80156105a45780601f10610579576101008083540402835291602001916105a4565b820191906000526020600020905b81548152906001019060200180831161058757829003601f168201915b505050505091505090565b60006105bc3384846109cd565b905092915050565b6105cc610c4c565b60006105d6610b06565b90508060060160008473ffffffffffffffffffffffffffffffffffffffff1673ffffffffffffffffffffffffffffffffffffffff1681526020019081526020016000206040518060800160405290816000820160009054906101000a900473ffffffffffffffffffffffffffffffffffffffff1673ffffffffffffffffffffffffffffffffffffffff1673ffffffffffffffffffffffffffffffffffffffff168152602001600182015481526020016002820180546106949061108f565b80601f01602080910402602001604051908101604052809291908181526020018280546106c09061108f565b801561070d5780601f106106e25761010080835404028352916020019161070d565b820191906000526020600020905b8154815290600101906020018083116106f057829003601f168201915b505050505081526020016003820180546107269061108f565b80601f01602080910402602001604051908101604052809291908181526020018280546107529061108f565b801561079f5780601f106107745761010080835404028352916020019161079f565b820191906000526020600020905b81548152906001019060200180831161078257829003601f168201915b505050505081525050915050919050565b6000806107bb610845565b90508060010160008573ffffffffffffffffffffffffffffffffffffffff1673ffffffffffffffffffffffffffffffffffffffff16815260200190815260200160002060008473ffffffffffffffffffffffffffffffffffffffff1673ffffffffffffffffffffffffffffffffffffffff1681526020019081526020016000205491505092915050565b6000807f17789449870c0f58d74ae3f2b54e2ffd15a4ba87c9c4b606fe8968555d61b02f90508091505090565b600061087e8483610b0b565b6000610888610845565b9050828160010160008773ffffffffffffffffffffffffffffffffffffffff1673ffffffffffffffffffffffffffffffffffffffff16815260200190815260200160002060008673ffffffffffffffffffffffffffffffffffffffff1673ffffffffffffffffffffffffffffffffffffffff168152602001908152602001600020819055508373ffffffffffffffffffffffffffffffffffffffff168573ffffffffffffffffffffffffffffffffffffffff167f8c5be1e5ebec7d5bd14f71427d1e84f3dd0314c0f7b2291e5b200ac8c7c3b9258560405161096a9190610e5a565b60405180910390a360019150509392505050565b610989838383610b58565b6109c8576040517f08c379a00000000000000000000000000000000000000000000000000000000081526004016109bf906115a8565b60405180910390fd5b505050565b60006109d98483610b0b565b60006109e3610845565b9050828160000160008773ffffffffffffffffffffffffffffffffffffffff1673ffffffffffffffffffffffffffffffffffffffff1681526020019081526020016000206000828254610a3691906115c8565b92505081905550828160000160008673ffffffffffffffffffffffffffffffffffffffff1673ffffffffffffffffffffffffffffffffffffffff1681526020019081526020016000206000828254610a8e91906115fc565b925050819055508373ffffffffffffffffffffffffffffffffffffffff168573ffffffffffffffffffffffffffffffffffffffff167fddf252ad1be2c89b69c2b068fc378daa952ba7f163c4a11628f55a4df523b3ef85604051610af29190610e5a565b60405180910390a360019150509392505050565b600090565b610b158282610bf1565b610b54576040517f08c379a0000000000000000000000000000000000000000000000000000000008152600401610b4b9061167c565b60405180910390fd5b5050565b600080610b63610845565b9050828160010160008773ffffffffffffffffffffffffffffffffffffffff1673ffffffffffffffffffffffffffffffffffffffff16815260200190815260200160002060008673ffffffffffffffffffffffffffffffffffffffff1673ffffffffffffffffffffffffffffffffffffffff1681526020019081526020016000205410159150509392505050565b600080610bfc610845565b9050828160000160008673ffffffffffffffffffffffffffffffffffffffff1673ffffffffffffffffffffffffffffffffffffffff16815260200190815260200160002054101591505092915050565b6040518060800160405280600073ffffffffffffffffffffffffffffffffffffffff1681526020016000815260200160608152602001606081525090565b600081519050919050565b600082825260208201905092915050565b60005b83811015610cc4578082015181840152602081019050610ca9565b60008484015250505050565b6000601f19601f8301169050919050565b6000610cec82610c8a565b610cf68185610c95565b9350610d06818560208601610ca6565b610d0f81610cd0565b840191505092915050565b60006020820190508181036000830152610d348184610ce1565b905092915050565b600080fd5b600073ffffffffffffffffffffffffffffffffffffffff82169050919050565b6000610d6c82610d41565b9050919050565b610d7c81610d61565b8114610d8757600080fd5b50565b600081359050610d9981610d73565b92915050565b6000819050919050565b610db281610d9f565b8114610dbd57600080fd5b50565b600081359050610dcf81610da9565b92915050565b60008060408385031215610dec57610deb610d3c565b5b6000610dfa85828601610d8a565b9250506020610e0b85828601610dc0565b9150509250929050565b60008115159050919050565b610e2a81610e15565b82525050565b6000602082019050610e456000830184610e21565b92915050565b610e5481610d9f565b82525050565b6000602082019050610e6f6000830184610e4b565b92915050565b600080600060608486031215610e8e57610e8d610d3c565b5b6000610e9c86828701610d8a565b9350506020610ead86828701610d8a565b9250506040610ebe86828701610dc0565b9150509250925092565b600060ff82169050919050565b610ede81610ec8565b82525050565b6000602082019050610ef96000830184610ed5565b92915050565b600060208284031215610f1557610f14610d3c565b5b6000610f2384828501610d8a565b91505092915050565b610f3581610d61565b82525050565b610f4481610d9f565b82525050565b600082825260208201905092915050565b6000610f6682610c8a565b610f708185610f4a565b9350610f80818560208601610ca6565b610f8981610cd0565b840191505092915050565b6000608083016000830151610fac6000860182610f2c565b506020830151610fbf6020860182610f3b565b5060408301518482036040860152610fd78282610f5b565b91505060608301518482036060860152610ff18282610f5b565b9150508091505092915050565b600060208201905081810360008301526110188184610f94565b905092915050565b6000806040838503121561103757611036610d3c565b5b600061104585828601610d8a565b925050602061105685828601610d8a565b9150509250929050565b7f4e487b7100000000000000000000000000000000000000000000000000000000600052602260045260246000fd5b600060028204905060018216806110a757607f821691505b6020821081036110ba576110b9611060565b5b50919050565b7f4e487b7100000000000000000000000000000000000000000000000000000000600052604160045260246000fd5b60008190508160005260206000209050919050565b60006020601f8301049050919050565b600082821b905092915050565b6000600883026111517fffffffffffffffffffffffffffffffffffffffffffffffffffffffffffffffff82611114565b61115b8683611114565b95508019841693508086168417925050509392505050565b6000819050919050565b600061119861119361118e84610d9f565b611173565b610d9f565b9050919050565b6000819050919050565b6111b28361117d565b6111c66111be8261119f565b848454611121565b825550505050565b600090565b6111db6111ce565b6111e68184846111a9565b505050565b5b8181101561120a576111ff6000826111d3565b6001810190506111ec565b5050565b601f82111561124f57611220816110ef565b61122984611104565b81016020851015611238578190505b61124c61124485611104565b8301826111eb565b50505b505050565b600082821c905092915050565b600061127260001984600802611254565b1980831691505092915050565b600061128b8383611261565b9150826002028217905092915050565b6112a482610c8a565b67ffffffffffffffff8111156112bd576112bc6110c0565b5b6112c7825461108f565b6112d282828561120e565b600060209050601f83116001811461130557600084156112f3578287015190505b6112fd858261127f565b865550611365565b601f198416611313866110ef565b60005b8281101561133b57848901518255600182019150602085019450602081019050611316565b868310156113585784890151611354601f891682611261565b8355505b6001600288020188555050505b505050505050565b7f4e487b7100000000000000000000000000000000000000000000000000000000600052601160045260246000fd5b60008160011c9050919050565b6000808291508390505b60018511156113f3578086048111156113cf576113ce61136d565b5b60018516156113de5780820291505b80810290506113ec8561139c565b94506113b3565b94509492505050565b60008261140c57600190506114c8565b8161141a57600090506114c8565b8160018114611430576002811461143a57611469565b60019150506114c8565b60ff84111561144c5761144b61136d565b5b8360020a9150848211156114635761146261136d565b5b506114c8565b5060208310610133831016604e8410600b841016171561149e5782820a9050838111156114995761149861136d565b5b6114c8565b6114ab84848460016113a9565b925090508184048111156114c2576114c161136d565b5b81810290505b9392505050565b60006114da82610d9f565b91506114e583610ec8565b92506115127fffffffffffffffffffffffffffffffffffffffffffffffffffffffffffffffff84846113fc565b905092915050565b600061152582610d9f565b915061153083610d9f565b925082820261153e81610d9f565b915082820484148315176115555761155461136d565b5b5092915050565b7f45524332303a20496e73756666696369656e7420416c6c6f77616e6365000000600082015250565b6000611592601d83610c95565b915061159d8261155c565b602082019050919050565b600060208201905081810360008301526115c181611585565b9050919050565b60006115d382610d9f565b91506115de83610d9f565b92508282039050818111156115f6576115f561136d565b5b92915050565b600061160782610d9f565b915061161283610d9f565b925082820190508082111561162a5761162961136d565b5b92915050565b7f45524332303a20496e73756666696369656e742046756e647300000000000000600082015250565b6000611666601983610c95565b915061167182611630565b602082019050919050565b6000602082019050818103600083015261169581611659565b905091905056fea2646970667358221220967691d6b0a6159da2d4fd4f21b313b9ced01571f9a5c4462b695bc50f36fb0464736f6c63430008130033",
  "devdoc": {
    "events": {
      "Approval(address,address,uint256)": {
        "details": "Emitted when the allowance of a `spender` for an `owner` is set by a call to {approve}. `value` is the new allowance."
      },
      "Transfer(address,address,uint256)": {
        "details": "Emitted when `value` tokens are moved from one account (`from`) to another (`to`). Note that `value` may be zero."
      }
    },
    "kind": "dev",
    "methods": {
      "totalSupply()": {
        "details": "Returns the amount of tokens in existence."
      }
    },
    "version": 1
  },
  "userdoc": {
    "kind": "user",
    "methods": {},
    "version": 1
  },
  "storageLayout": {
    "storage": [
      {
        "astId": 1994,
        "contract": "contracts/facets/ERC20Facet.sol:Erc20FacetToken",
        "label": "s",
        "offset": 0,
        "slot": "0",
        "type": "t_struct(AppStorage)2051_storage"
      }
    ],
    "types": {
      "t_address": {
        "encoding": "inplace",
        "label": "address",
        "numberOfBytes": "20"
      },
      "t_mapping(t_address,t_struct(User)2038_storage)": {
        "encoding": "mapping",
        "key": "t_address",
        "label": "mapping(address => struct User)",
        "numberOfBytes": "32",
        "value": "t_struct(User)2038_storage"
      },
      "t_string_storage": {
        "encoding": "bytes",
        "label": "string",
        "numberOfBytes": "32"
      },
      "t_struct(AppStorage)2051_storage": {
        "encoding": "inplace",
        "label": "struct AppStorage",
        "members": [
          {
            "astId": 2041,
            "contract": "contracts/facets/ERC20Facet.sol:Erc20FacetToken",
            "label": "admin",
            "offset": 0,
            "slot": "0",
            "type": "t_struct(User)2038_storage"
          },
          {
            "astId": 2043,
            "contract": "contracts/facets/ERC20Facet.sol:Erc20FacetToken",
            "label": "appName",
            "offset": 0,
            "slot": "4",
            "type": "t_string_storage"
          },
          {
            "astId": 2045,
            "contract": "contracts/facets/ERC20Facet.sol:Erc20FacetToken",
            "label": "appUrl",
            "offset": 0,
            "slot": "5",
            "type": "t_string_storage"
          },
          {
            "astId": 2050,
            "contract": "contracts/facets/ERC20Facet.sol:Erc20FacetToken",
            "label": "_users",
            "offset": 0,
            "slot": "6",
            "type": "t_mapping(t_address,t_struct(User)2038_storage)"
          }
        ],
        "numberOfBytes": "224"
      },
      "t_struct(User)2038_storage": {
        "encoding": "inplace",
        "label": "struct User",
        "members": [
          {
            "astId": 2031,
            "contract": "contracts/facets/ERC20Facet.sol:Erc20FacetToken",
            "label": "account",
            "offset": 0,
            "slot": "0",
            "type": "t_address"
          },
          {
            "astId": 2033,
            "contract": "contracts/facets/ERC20Facet.sol:Erc20FacetToken",
            "label": "telegramId",
            "offset": 0,
            "slot": "1",
            "type": "t_uint256"
          },
          {
            "astId": 2035,
            "contract": "contracts/facets/ERC20Facet.sol:Erc20FacetToken",
            "label": "useWallet",
            "offset": 0,
            "slot": "2",
            "type": "t_string_storage"
          },
          {
            "astId": 2037,
            "contract": "contracts/facets/ERC20Facet.sol:Erc20FacetToken",
            "label": "nation",
            "offset": 0,
            "slot": "3",
            "type": "t_string_storage"
          }
        ],
        "numberOfBytes": "128"
      },
      "t_uint256": {
        "encoding": "inplace",
        "label": "uint256",
        "numberOfBytes": "32"
      }
    }
  }
}